:020000040000FA
:100000000C9463000C948B000C948B000C948B006C
:100010000C948B000C948B000C948B000C940004BB
:100020000C948B000C948B000C948B000C948B0024
:100030000C948B000C948B000C948B000C948B0014
:100040000C94B6030C948B000C94A8040C948204BA
:100050000C948B000C948B000C948B000C948B00F4
:100060000C948B000C948B000200000000240027ED
:10007000002A0000000000250028002B00000000DE
:1000800000230026002900040404040404040402DC
:100090000202020202030303030303010204081025
:1000A00020408001020408102001020408102000F2
:1000B0000000080002010000030407000000000027
:1000C000000000005E0611241FBECFEFD8E0DEBFA7
:1000D000CDBF11E0A0E0B1E0E6E7FDE002C0059091
:1000E0000D92A831B107D9F721E0A8E1B1E001C034
:1000F0001D92A33DB207E1F710E0C3E6D0E004C0D3
:100100002197FE010E94B306C236D107C9F70E94AB
:10011000DA040C94B9060C940000833081F028F4C2
:10012000813099F08230A9F008958730A9F08830A5
:10013000C9F08430B1F4809180008F7D03C080913C
:1001400080008F7780938000089584B58F7784BD79
:10015000089584B58F7DFBCF8091B0008F77809319
:10016000B00008958091B0008F7DF9CFCF93DF93D9
:10017000282F30E0F901E155FF4F8491F901E55650
:10018000FF4FD491F901E957FF4FC491CC23A1F05F
:1001900081110E948D00EC2FF0E0EE0FFF1FE3585D
:1001A000FF4FA591B491EC91ED2381E090E009F42B
:1001B00080E0DF91CF91089580E090E0FACF1F9327
:1001C000CF93DF93282F30E0F901E155FF4F849161
:1001D000F901E556FF4FD491F901E957FF4FC4915A
:1001E000CC23A9F0162F81110E948D00EC2FF0E096
:1001F000EE0FFF1FED58FF4FA591B4918FB7F89404
:10020000EC91111108C0D095DE23DC938FBFDF91F4
:10021000CF911F910895DE2BF8CFCF93DF9390E01D
:10022000FC01E556FF4F249189579F4FFC018491B3
:100230008823C9F090E0880F991FFC01E759FF4F10
:10024000A591B491FC01ED58FF4FC591D491611176
:100250000DC09FB7F8948C91209582238C93888150
:10026000282328839FBFDF91CF910895623051F4F6
:100270009FB7F8943C91822F809583238C93E881DB
:100280002E2BEFCF8FB7F894EC912E2B2C938FBFA2
:10029000EACF8E50806480937C0080917A008064E5
:1002A00080937A0080917A0086FDFCCF809178005F
:1002B0009091790008953FB7F8948091CF01909183
:1002C000D001A091D101B091D20126B5A89B05C063
:1002D0002F3F19F00196A11DB11D3FBFBA2FA92FC5
:1002E000982F8827BC01CD01620F711D811D911DC2
:1002F00042E0660F771F881F991F4A95D1F708952E
:100300008F929F92AF92BF92CF92DF92EF92FF9225
:100310004B015C010E945B016B017C010E945B014F
:100320006C197D098E099F09683E7340810591050E
:10033000A8F321E0821A9108A108B10888EEC80E3E
:1003400083E0D81EE11CF11C81149104A104B104C6
:1003500029F7FF90EF90DF90CF90BF90AF909F90E4
:100360008F900895AF92BF92CF92DF92EF92FF925B
:100370000F931F93CF93DF936C017B018B01040FCD
:10038000151FEB015E01AE18BF08C017D10759F069
:100390006991D601ED91FC910190F081E02DC601AB
:1003A0000995892B79F7C501DF91CF911F910F91A5
:1003B000FF90EF90DF90CF90BF90AF900895FC0139
:1003C000538D448D252F30E0842F90E0821B930BBA
:1003D000541710F0CF96089501970895FC01918D60
:1003E000828D981761F0A28DAE0FBF2FB11D5D9663
:1003F0008C91928D9F5F9F73928F90E008958FEF05
:100400009FEF0895FC01918D828D981731F0828DB8
:10041000E80FF11D858D90E008958FEF9FEF08950F
:10042000FC01918D228D892F90E0805C9F4F821B73
:1004300091098F739927089589E291E00E94100233
:1004400021E0892B09F420E0822F089580E090E0DC
:10045000892B29F00E941C0281110C940000089540
:10046000FC01A48DA80FB92FB11DA35ABF4F2C9129
:10047000848D90E001968F739927848FA689B78920
:100480002C93A089B1898C91837080648C93938D17
:10049000848D981306C00288F389E02D80818F7DBA
:1004A00080830895EF92FF920F931F93CF93DF9372
:1004B000EC0181E0888F9B8D8C8D98131AC0E889A0
:1004C000F989808185FF15C09FB7F894EE89FF896F
:1004D0006083E889F98980818370806480839FBF0D
:1004E00081E090E0DF91CF911F910F91FF90EF900D
:1004F0000895F62E0B8D10E00F5F1F4F0F7311271D
:10050000E02E8C8D8E110CC00FB607FCFACFE88957
:10051000F989808185FFF5CFCE010E943002F1CFAD
:10052000EB8DEC0FFD2FF11DE35AFF4FF0829FB7CB
:10053000F8940B8FEA89FB8980818062CFCFCF93BB
:10054000DF93EC01888D8823B9F0AA89BB89E889FB
:10055000F9898C9185FD03C0808186FD0DC00FB6A1
:1005600007FCF7CF8C9185FFF2CF808185FFEDCF1F
:10057000CE010E943002E9CFDF91CF910895CF9351
:1005800060E085E00E94DF0060E086E00E94DF001E
:1005900060E087E00E94DF0060E088E00E94DF000A
:1005A00061E083E00E94DF0080910001833149F027
:1005B0008F3F81F182E00E94B600892BD9F3CF9161
:1005C0000895E8E6F0E0C491C7FDF4CF61E083E16F
:1005D0000E940D01CC2309F48BC0C23009F09FC0EA
:1005E0008091B100887F82608093B10085EA80931A
:1005F000B3008FEF9FEFDC018093250190932601DC
:10060000A0932701B09328018091700082608093AD
:100610007000D0CF83E180930001E8E6F0E0C49160
:10062000CF3F41F2C13021F150F0C23009F43EC059
:10063000C7FDC0CF61E083E10E940D01CECF14BCA5
:1006400015BC84B5826084BD85B5816085BDEAE94D
:10065000F0E0E491F0E0EE0FFF1FED58FF4F8591C1
:100660009491EEEAF0E0E491E0931901C0E0AECF9E
:1006700010928000109281008091810088608093A8
:10068000810080918100816080938100EAE9F0E03F
:10069000E491F0E0EE0FFF1FED58FF4F859194912C
:1006A000EEEAF0E0E491E093180190CF1092B000F0
:1006B0001092B1008091B00082608093B000809170
:1006C000B10081608093B100EAE9F0E0E491F0E0EC
:1006D000EE0FFF1FED58FF4F8591949190932301EA
:1006E00080932201EEEAF0E0E491E09324016ECFE2
:1006F00085B5887F826085BD85EA87BD8FEF9FEFD6
:10070000DC0180931E0190931F01A0932001B09300
:10071000210180916E00826080936E004BCFC130CA
:10072000E9F480918100887F81608093810084E377
:1007300095E090938900809388008FEF9FEFDC0114
:1007400080931A0190931B01A0931C01B0931D018B
:1007500080916F00826080936F002CCFC23021F0B7
:10076000C11128CF84E3C9CF84E341CF1F920F92F8
:100770000FB60F9211242F933F938F939F93AF93B4
:10078000BF938091CB019091CC01A091CD01B0910C
:10079000CE013091CA0123E0230F2D3758F5019681
:1007A000A11DB11D2093CA018093CB019093CC0170
:1007B000A093CD01B093CE018091CF019091D00153
:1007C000A091D101B091D2010196A11DB11D8093DC
:1007D000CF019093D001A093D101B093D201BF91EA
:1007E000AF919F918F913F912F910F900FBE0F90DE
:1007F0001F90189526E8230F0296A11DB11DD2CF98
:100800001F920F920FB60F9211242F933F934F9385
:100810005F936F937F938F939F93AF93BF93EF9368
:10082000FF938091250190912601A0912701B0911D
:100830002801892B8A2B8B2BD1F190912401E091F7
:100840002201F091230180818927808380912501F5
:1008500090912601A0912701B09128011816190640
:100860001A061B069CF48091250190912601A09107
:100870002701B09128010197A109B10980932501B1
:1008800090932601A0932701B0932801FF91EF9147
:10089000BF91AF919F918F917F916F915F914F9198
:1008A0003F912F910F900FBE0F901F901895809140
:1008B0000001E8E6F0E0E4919FEF90930001E13061
:1008C00051F030F0E23069F060E00E94DF00DECFEE
:1008D00010926E00F9CF90916F009D7F90936F0002
:1008E000F3CF909170009D7F9093700091E0909372
:1008F000B0009091B100987F94609093B1001092F5
:10090000B300E2CF1F920F920FB60F9211242F93D4
:100910003F934F935F936F937F938F939F93AF9387
:10092000BF93EF93FF9389E291E00E943002FF9121
:10093000EF91BF91AF919F918F917F916F915F9157
:100940004F913F912F910F900FBE0F901F901895D0
:100950001F920F920FB60F9211242F938F939F9394
:10096000EF93FF93E0913901F0913A018081E0919A
:100970003F01F091400182FD1BC0908180914201B6
:100980008F5F8F7320914301821741F0E091420104
:10099000F0E0E75DFE4F958F80934201FF91EF916C
:1009A0009F918F912F910F900FBE0F901F901895D0
:1009B0008081F4CF789484B5826084BD84B58160F1
:1009C00084BD85B5826085BD85B5816085BD80911A
:1009D0006E00816080936E00109281008091810092
:1009E000826080938100809181008160809381008A
:1009F000809180008160809380008091B10084604C
:100A00008093B1008091B00081608093B0008091AC
:100A10007A00846080937A0080917A00826080936B
:100A20007A0080917A00816080937A0080917A00C8
:100A3000806880937A001092C100E0913901F091B2
:100A40003A0182E08083E0913501F0913601108215
:100A5000E0913701F09138018FEC808310924101D1
:100A6000E0913D01F0913E0186E08083E0913B0101
:100A7000F0913C01808180618083E0913B01F091A5
:100A80003C01808188608083E0913B01F0913C01D2
:100A9000808180688083E0913B01F0913C018081FE
:100AA0008F7D808362E082E00E940D0160E082E140
:100AB0000E940D0161E083E10E940D0162E080E18E
:100AC0000E940D0160E08CE20E940D0161E085E072
:100AD0000E940D0161E086E00E940D0161E087E067
:100AE0000E940D0161E088E00E940D0160E08EE04F
:100AF0000E940D0160E08FE00E940D0161E083E043
:100B00000E940D0161E084E00E940D0161E081E13D
:100B10000E940D01C3E0D0E080E0282E80E0382E56
:100B200090E4C92E9FE1D92EE12CF12C82E00E94A5
:100B3000B600019721F560E083E00E94DF0060E0ED
:100B400084E00E94DF001092C7011092C601C0929B
:100B50000101D0920201E0920301F092040168EEDB
:100B600073E080E090E00E94800121143104F1F2F2
:100B70000E941C028823D1F20E940000D7CF8FB7B9
:100B8000F8944091CB015091CC016091CD017091CE
:100B9000CE018FBF8090010190900201A0900301CF
:100BA000B09004018FB7F8944090CB015090CC01E5
:100BB0006090CD017090CE018FBF61E085E00E9412
:100BC000DF002FB7F8948091CB019091CC01A091D8
:100BD000CD01B091CE012FBF84199509A609B7099F
:100BE00088159905AA05BB0508F04FC08EE00E9444
:100BF00049018C019093C9018093C8018FE00E9444
:100C00004901005911400139114038F08059914093
:100C10008139914010F00E94BF0280E10E94B6002D
:100C2000019751F560E085E00E94DF008091C601E8
:100C30009091C70101969093C7018093C6010091DE
:100C40000101109102012091030130910401083E3D
:100C500043E0140721053105F9F461E084E00E94C6
:100C6000DF0064EF71E080E090E00E94800160E0CE
:100C700084E00E94DF0079CF82E10E94B6000197F4
:100C800009F09FCF0E94BF029CCF60E085E00E94E8
:100C9000DF000E94BF0269CFBE010E948B06892B34
:100CA000E1F6045F1140210931090093010110931D
:100CB00002012093030130930401CFCFE9E2F1E078
:100CC0001382128288EE93E0A0E0B0E084839583E3
:100CD000A683B78389E091E09183808385EC90E0DF
:100CE0009587848784EC90E09787868780EC90E0F6
:100CF000918B808B81EC90E0938B828B82EC90E0E7
:100D0000958B848B86EC90E0978B868B118E128E60
:100D1000138E148E089597FB072E16F4009407D0B7
:100D200077FD09D00E949F0607FC05D03EF4909500
:100D300081959F4F0895709561957F4F0895AA1BE7
:100D4000BB1B51E107C0AA1FBB1FA617B70710F0B6
:100D5000A61BB70B881F991F5A95A9F780959095E8
:100D6000BC01CD010895EE0FFF1F0590F491E02D19
:100D70000994F894FFCFFF102700000000000052F4
:0E0D800002B201DF019F021002EE010202002A
:107E0000112484B714BE81FFF0D085E080938100F7
:107E100082E08093C00088E18093C10086E0809377
:107E2000C20080E18093C4008EE0C9D0259A86E02C
:107E300020E33CEF91E0309385002093840096BBD3
:107E4000B09BFECF1D9AA8958150A9F7CC24DD24C4
:107E500088248394B5E0AB2EA1E19A2EF3E0BF2EE7
:107E6000A2D0813461F49FD0082FAFD0023811F036
:107E7000013811F484E001C083E08DD089C08234E0
:107E800011F484E103C0853419F485E0A6D080C0E4
:107E9000853579F488D0E82EFF2485D0082F10E0AE
:107EA000102F00270E291F29000F111F8ED06801E7
:107EB0006FC0863521F484E090D080E0DECF843638
:107EC00009F040C070D06FD0082F6DD080E0C81688
:107ED00080E7D80618F4F601B7BEE895C0E0D1E017
:107EE00062D089930C17E1F7F0E0CF16F0E7DF06D8
:107EF00018F0F601B7BEE89568D007B600FCFDCFD4
:107F0000A601A0E0B1E02C9130E011968C91119780
:107F100090E0982F8827822B932B1296FA010C0160
:107F200087BEE89511244E5F5F4FF1E0A038BF0790
:107F300051F7F601A7BEE89507B600FCFDCF97BE46
:107F4000E89526C08437B1F42ED02DD0F82E2BD052
:107F50003CD0F601EF2C8F010F5F1F4F84911BD097
:107F6000EA94F801C1F70894C11CD11CFA94CF0C13
:107F7000D11C0EC0853739F428D08EE10CD085E9AC
:107F80000AD08FE07ACF813511F488E018D01DD067
:107F900080E101D065CF982F8091C00085FFFCCF94
:107FA0009093C60008958091C00087FFFCCF809118
:107FB000C00084FD01C0A8958091C6000895E0E648
:107FC000F0E098E1908380830895EDDF803219F02E
:107FD00088E0F5DFFFCF84E1DECF1F93182FE3DFCA
:107FE0001150E9F7F2DF1F91089580E0E8DFEE27F6
:047FF000FF270994CA
:027FFE00040479
:00000001FF
